{
    "contractName": "CustomerAccount",
    "abi": [
        {
            "payable": true,
            "stateMutability": "payable",
            "type": "fallback"
        },
        {
            "constant": false,
            "inputs": [],
            "name": "deposit",
            "outputs": [
                {
                    "internalType": "bool",
                    "name": "",
                    "type": "bool"
                }
            ],
            "payable": true,
            "stateMutability": "payable",
            "type": "function"
        },
        {
            "constant": true,
            "inputs": [],
            "name": "getInfo",
            "outputs": [
                {
                    "internalType": "address",
                    "name": "",
                    "type": "address"
                },
                {
                    "internalType": "bool",
                    "name": "",
                    "type": "bool"
                },
                {
                    "internalType": "uint256",
                    "name": "",
                    "type": "uint256"
                },
                {
                    "internalType": "string",
                    "name": "",
                    "type": "string"
                },
                {
                    "internalType": "string",
                    "name": "",
                    "type": "string"
                }
            ],
            "payable": false,
            "stateMutability": "view",
            "type": "function"
        },
        {
            "constant": false,
            "inputs": [
                {
                    "internalType": "address payable",
                    "name": "recipient",
                    "type": "address"
                },
                {
                    "internalType": "uint256",
                    "name": "amount",
                    "type": "uint256"
                }
            ],
            "name": "sendRemittance",
            "outputs": [
                {
                    "internalType": "bool",
                    "name": "",
                    "type": "bool"
                }
            ],
            "payable": true,
            "stateMutability": "payable",
            "type": "function"
        },
        {
            "constant": false,
            "inputs": [
                {
                    "internalType": "address",
                    "name": "newOwner",
                    "type": "address"
                },
                {
                    "internalType": "bool",
                    "name": "newAccountStatus",
                    "type": "bool"
                },
                {
                    "internalType": "uint256",
                    "name": "newAccountBalance",
                    "type": "uint256"
                },
                {
                    "internalType": "string",
                    "name": "newCustomerName",
                    "type": "string"
                },
                {
                    "internalType": "string",
                    "name": "newCustomerLastName",
                    "type": "string"
                }
            ],
            "name": "setInfo",
            "outputs": [],
            "payable": false,
            "stateMutability": "nonpayable",
            "type": "function"
        }
    ],
    "bytecode": "608060405234801561001057600080fd5b506105dc806100206000396000f3fe60806040526004361061003f5760003560e01c80635a9b0b89146100455780637b8e0eb614610163578063d0e30db0146101a3578063de1f950b146101ab575b47600155005b34801561005157600080fd5b5061005a610305565b60405180866001600160a01b03166001600160a01b03168152602001851515151581526020018481526020018060200180602001838103835285818151815260200191508051906020019080838360005b838110156100c35781810151838201526020016100ab565b50505050905090810190601f1680156100f05780820380516001836020036101000a031916815260200191505b50838103825284518152845160209182019186019080838360005b8381101561012357818101518382015260200161010b565b50505050905090810190601f1680156101505780820380516001836020036101000a031916815260200191505b5097505050505050505060405180910390f35b61018f6004803603604081101561017957600080fd5b506001600160a01b03813516906020013561045f565b604080519115158252519081900360200190f35b61018f6104a5565b3480156101b757600080fd5b50610303600480360360a08110156101ce57600080fd5b6001600160a01b038235169160208101351515916040820135919081019060808101606082013564010000000081111561020757600080fd5b82018360208201111561021957600080fd5b8035906020019184600183028401116401000000008311171561023b57600080fd5b91908080601f016020809104026020016040519081016040528093929190818152602001838380828437600092019190915250929594936020810193503591505064010000000081111561028e57600080fd5b8201836020820111156102a057600080fd5b803590602001918460018302840111640100000000831117156102c257600080fd5b91908080601f0160208091040260200160405190810160405280939291908181526020018383808284376000920191909152509295506104af945050505050565b005b600080546001805460028054604080516020610100968416159690960260001901909216839004601f81018690048602830186019091528082528695869560609586956001600160a01b03841695600160a01b90940460ff16949193909260039284918301828280156103b95780601f1061038e576101008083540402835291602001916103b9565b820191906000526020600020905b81548152906001019060200180831161039c57829003601f168201915b5050845460408051602060026001851615610100026000190190941693909304601f8101849004840282018401909252818152959750869450925084019050828280156104475780601f1061041c57610100808354040283529160200191610447565b820191906000526020600020905b81548152906001019060200180831161042a57829003601f168201915b50505050509050945094509450945094509091929394565b6040516000906001600160a01b0384169083156108fc0290849084818181858888f19350505050158015610497573d6000803e3d6000fd5b505047600190815592915050565b4760019081555b90565b600080546001600160a01b0319166001600160a01b0387161760ff60a01b1916600160a01b86151502179055600183905581516104f390600290602085019061050f565b50805161050790600390602084019061050f565b505050505050565b828054600181600116156101000203166002900490600052602060002090601f016020900481019282601f1061055057805160ff191683800117855561057d565b8280016001018555821561057d579182015b8281111561057d578251825591602001919060010190610562565b5061058992915061058d565b5090565b6104ac91905b80821115610589576000815560010161059356fea265627a7a72315820fd3b70df48c07acd25849eeaa6a5adf7b590b90432e2819b4175115d99e4128e64736f6c63430005110032",
    "sourcePath": "/Users/pete/Documents/Fintech-Workspace/M20/02_Implement_Ether_Management_Functions/Unsolved/customer_account.sol",
    "compiler": {
        "name": "solc",
        "version": "0.5.17+commit.d19bba13"
    },
    "functionHashes": {
        "deposit()": "d0e30db0",
        "getInfo()": "5a9b0b89",
        "sendRemittance(address,uint256)": "7b8e0eb6",
        "setInfo(address,bool,uint256,string,string)": "de1f950b"
    },
    "gasEstimates": {
        "creation": {
            "codeDepositCost": "300000",
            "executionCost": "337",
            "totalCost": "300337"
        },
        "external": {
            "": "20148",
            "deposit()": "20214",
            "getInfo()": "infinite",
            "sendRemittance(address,uint256)": "infinite",
            "setInfo(address,bool,uint256,string,string)": "infinite"
        }
    }
}