{
    "contractName": "TradeController",
    "abi": [
        {
            "constant": false,
            "inputs": [
                {
                    "internalType": "uint256",
                    "name": "currentPrice",
                    "type": "uint256"
                },
                {
                    "internalType": "bool",
                    "name": "buyAnyway",
                    "type": "bool"
                }
            ],
            "name": "makeTrade",
            "outputs": [],
            "payable": false,
            "stateMutability": "nonpayable",
            "type": "function"
        }
    ],
    "bytecode": "608060405234801561001057600080fd5b506101d4806100206000396000f3fe608060405234801561001057600080fd5b506004361061002b5760003560e01c806399418ee814610030575b600080fd5b6100556004803603604081101561004657600080fd5b50803590602001351515610057565b005b6000548210806100645750805b1561009e576040805180820190915260038082526242757960e81b602090920191825261009391600191610104565b506000829055610100565b6000548211156100d3576040805180820190915260048082526314d95b1b60e21b602090920191825261009391600191610104565b60408051808201909152600480825263121bdb1960e21b60209092019182526100fe91600191610104565b505b5050565b828054600181600116156101000203166002900490600052602060002090601f016020900481019282601f1061014557805160ff1916838001178555610172565b82800160010185558215610172579182015b82811115610172578251825591602001919060010190610157565b5061017e929150610182565b5090565b61019c91905b8082111561017e5760008155600101610188565b9056fea265627a7a72315820c416ca7e630b4e55a25d6113a2e4c3be45416c5cb970b66ceb5e6c355b4c807c64736f6c63430005110032",
    "sourcePath": "/Users/pete/Documents/Fintech-Workspace/M20/01_Trade_Controllers/Unsolved/trade_controller.sol",
    "compiler": {
        "name": "solc",
        "version": "0.5.17+commit.d19bba13"
    },
    "functionHashes": {
        "makeTrade(uint256,bool)": "99418ee8"
    },
    "gasEstimates": {
        "creation": {
            "codeDepositCost": "93600",
            "executionCost": "141",
            "totalCost": "93741"
        },
        "external": {
            "makeTrade(uint256,bool)": "infinite"
        }
    }
}