{
    "contractName": "CustomerAccount",
    "abi": [
        {
            "constant": true,
            "inputs": [],
            "name": "getInfo",
            "outputs": [
                {
                    "internalType": "address",
                    "name": "",
                    "type": "address"
                },
                {
                    "internalType": "bool",
                    "name": "",
                    "type": "bool"
                },
                {
                    "internalType": "uint256",
                    "name": "",
                    "type": "uint256"
                },
                {
                    "internalType": "string",
                    "name": "",
                    "type": "string"
                },
                {
                    "internalType": "string",
                    "name": "",
                    "type": "string"
                }
            ],
            "payable": false,
            "stateMutability": "view",
            "type": "function"
        },
        {
            "constant": false,
            "inputs": [
                {
                    "internalType": "address",
                    "name": "newOwner",
                    "type": "address"
                },
                {
                    "internalType": "bool",
                    "name": "newAccountStatus",
                    "type": "bool"
                },
                {
                    "internalType": "uint256",
                    "name": "newAccountBalance",
                    "type": "uint256"
                },
                {
                    "internalType": "string",
                    "name": "newCustomerName",
                    "type": "string"
                },
                {
                    "internalType": "string",
                    "name": "newCustomerLastName",
                    "type": "string"
                }
            ],
            "name": "setInfo",
            "outputs": [],
            "payable": false,
            "stateMutability": "nonpayable",
            "type": "function"
        }
    ],
    "bytecode": "608060405234801561001057600080fd5b50610523806100206000396000f3fe608060405234801561001057600080fd5b50600436106100365760003560e01c80635a9b0b891461003b578063de1f950b1461014c575b600080fd5b610043610299565b60405180866001600160a01b03166001600160a01b03168152602001851515151581526020018481526020018060200180602001838103835285818151815260200191508051906020019080838360005b838110156100ac578181015183820152602001610094565b50505050905090810190601f1680156100d95780820380516001836020036101000a031916815260200191505b50838103825284518152845160209182019186019080838360005b8381101561010c5781810151838201526020016100f4565b50505050905090810190601f1680156101395780820380516001836020036101000a031916815260200191505b5097505050505050505060405180910390f35b610297600480360360a081101561016257600080fd5b6001600160a01b038235169160208101351515916040820135919081019060808101606082013564010000000081111561019b57600080fd5b8201836020820111156101ad57600080fd5b803590602001918460018302840111640100000000831117156101cf57600080fd5b91908080601f016020809104026020016040519081016040528093929190818152602001838380828437600092019190915250929594936020810193503591505064010000000081111561022257600080fd5b82018360208201111561023457600080fd5b8035906020019184600183028401116401000000008311171561025657600080fd5b91908080601f0160208091040260200160405190810160405280939291908181526020018383808284376000920191909152509295506103f3945050505050565b005b600080546001805460028054604080516020610100968416159690960260001901909216839004601f81018690048602830186019091528082528695869560609586956001600160a01b03841695600160a01b90940460ff169491939092600392849183018282801561034d5780601f106103225761010080835404028352916020019161034d565b820191906000526020600020905b81548152906001019060200180831161033057829003601f168201915b5050845460408051602060026001851615610100026000190190941693909304601f8101849004840282018401909252818152959750869450925084019050828280156103db5780601f106103b0576101008083540402835291602001916103db565b820191906000526020600020905b8154815290600101906020018083116103be57829003601f168201915b50505050509050945094509450945094509091929394565b600080546001600160a01b0319166001600160a01b0387161760ff60a01b1916600160a01b8615150217905560018390558151610437906002906020850190610453565b50805161044b906003906020840190610453565b505050505050565b828054600181600116156101000203166002900490600052602060002090601f016020900481019282601f1061049457805160ff19168380011785556104c1565b828001600101855582156104c1579182015b828111156104c15782518255916020019190600101906104a6565b506104cd9291506104d1565b5090565b6104eb91905b808211156104cd57600081556001016104d7565b9056fea265627a7a7231582028c23f9e48e99960f542d54e4a155bef2bfa765b1f9d2a964dc8ce57f642588164736f6c63430005110032",
    "sourcePath": "/Users/pete/Documents/Fintech-Workspace/M20/01_Adding_Getters_and_Setters/Solved/customer_contract.sol",
    "compiler": {
        "name": "solc",
        "version": "0.5.17+commit.d19bba13"
    },
    "functionHashes": {
        "getInfo()": "5a9b0b89",
        "setInfo(address,bool,uint256,string,string)": "de1f950b"
    },
    "gasEstimates": {
        "creation": {
            "codeDepositCost": "263000",
            "executionCost": "306",
            "totalCost": "263306"
        },
        "external": {
            "getInfo()": "infinite",
            "setInfo(address,bool,uint256,string,string)": "infinite"
        }
    }
}