{
    "contractName": "CustomerAccount",
    "abi": [
        {
            "payable": true,
            "stateMutability": "payable",
            "type": "fallback"
        },
        {
            "constant": true,
            "inputs": [],
            "name": "accountBalance",
            "outputs": [
                {
                    "internalType": "uint256",
                    "name": "",
                    "type": "uint256"
                }
            ],
            "payable": false,
            "stateMutability": "view",
            "type": "function"
        },
        {
            "constant": false,
            "inputs": [],
            "name": "deposit",
            "outputs": [],
            "payable": true,
            "stateMutability": "payable",
            "type": "function"
        },
        {
            "constant": true,
            "inputs": [],
            "name": "getInfo",
            "outputs": [
                {
                    "internalType": "address",
                    "name": "",
                    "type": "address"
                },
                {
                    "internalType": "address payable",
                    "name": "",
                    "type": "address"
                },
                {
                    "internalType": "bool",
                    "name": "",
                    "type": "bool"
                },
                {
                    "internalType": "uint256",
                    "name": "",
                    "type": "uint256"
                },
                {
                    "internalType": "string",
                    "name": "",
                    "type": "string"
                },
                {
                    "internalType": "string",
                    "name": "",
                    "type": "string"
                }
            ],
            "payable": false,
            "stateMutability": "view",
            "type": "function"
        },
        {
            "constant": false,
            "inputs": [
                {
                    "internalType": "uint256",
                    "name": "amount",
                    "type": "uint256"
                },
                {
                    "internalType": "address payable",
                    "name": "recipient",
                    "type": "address"
                }
            ],
            "name": "sendRemittance",
            "outputs": [],
            "payable": false,
            "stateMutability": "nonpayable",
            "type": "function"
        },
        {
            "constant": false,
            "inputs": [
                {
                    "internalType": "address payable",
                    "name": "newOwner",
                    "type": "address"
                },
                {
                    "internalType": "address payable",
                    "name": "newAuthorizedRecipient",
                    "type": "address"
                },
                {
                    "internalType": "bool",
                    "name": "newAccountStatus",
                    "type": "bool"
                },
                {
                    "internalType": "uint256",
                    "name": "newAccountBalance",
                    "type": "uint256"
                },
                {
                    "internalType": "string",
                    "name": "newCustomerName",
                    "type": "string"
                },
                {
                    "internalType": "string",
                    "name": "newCustomerLastName",
                    "type": "string"
                }
            ],
            "name": "setInfo",
            "outputs": [],
            "payable": false,
            "stateMutability": "nonpayable",
            "type": "function"
        }
    ],
    "bytecode": "608060405234801561001057600080fd5b506106cc806100206000396000f3fe60806040526004361061004a5760003560e01c80635a9b0b891461004c578063a6aeaeb514610183578063b0a1c1c4146101bc578063d0e30db0146101e3578063f15a363f146101eb575b005b34801561005857600080fd5b5061006161034c565b60405180876001600160a01b03166001600160a01b03168152602001866001600160a01b03166001600160a01b03168152602001851515151581526020018481526020018060200180602001838103835285818151815260200191508051906020019080838360005b838110156100e25781810151838201526020016100ca565b50505050905090810190601f16801561010f5780820380516001836020036101000a031916815260200191505b50838103825284518152845160209182019186019080838360005b8381101561014257818101518382015260200161012a565b50505050905090810190601f16801561016f5780820380516001836020036101000a031916815260200191505b509850505050505050505060405180910390f35b34801561018f57600080fd5b5061004a600480360360408110156101a657600080fd5b50803590602001356001600160a01b03166104b2565b3480156101c857600080fd5b506101d1610555565b60408051918252519081900360200190f35b61004a61055b565b3480156101f757600080fd5b5061004a600480360360c081101561020e57600080fd5b6001600160a01b038235811692602081013590911691604082013515159160608101359181019060a08101608082013564010000000081111561025057600080fd5b82018360208201111561026257600080fd5b8035906020019184600183028401116401000000008311171561028457600080fd5b91908080601f01602080910402602001604051908101604052809392919081815260200183838082843760009201919091525092959493602081019350359150506401000000008111156102d757600080fd5b8201836020820111156102e957600080fd5b8035906020019184600183028401116401000000008311171561030b57600080fd5b91908080601f016020809104026020016040519081016040528093929190818152602001838380828437600092019190915250929550610561945050505050565b600080546004546001805460028054604080516020610100968416159690960260001901909216839004601f810186900486028301860190915280825287968796879660609687966001600160a01b0380861697941695600160a01b90950460ff16949193909260039284918301828280156104095780601f106103de57610100808354040283529160200191610409565b820191906000526020600020905b8154815290600101906020018083116103ec57829003601f168201915b5050845460408051602060026001851615610100026000190190941693909304601f8101849004840282018401909252818152959750869450925084019050828280156104975780601f1061046c57610100808354040283529160200191610497565b820191906000526020600020905b81548152906001019060200180831161047a57829003601f168201915b50505050509050955095509550955095509550909192939495565b6000546001600160a01b03828116911614806104db57506004546001600160a01b038281169116145b6105165760405162461bcd60e51b81526004018080602001828103825260288152602001806106706028913960400191505060405180910390fd5b6040516001600160a01b0382169083156108fc029084906000818181858888f1935050505015801561054c573d6000803e3d6000fd5b50504760015550565b60015481565b47600155565b60008054600480546001600160a01b038981166001600160a01b031992831617909255871515600160a01b0260ff60a01b19928b16919093161716179055600183905581516105b79060029060208501906105d4565b5080516105cb9060039060208401906105d4565b50505050505050565b828054600181600116156101000203166002900490600052602060002090601f016020900481019282601f1061061557805160ff1916838001178555610642565b82800160010185558215610642579182015b82811115610642578251825591602001919060010190610627565b5061064e929150610652565b5090565b61066c91905b8082111561064e5760008155600101610658565b9056fe54686520726563697069656e742061646472657373206973206e6f7420617574686f72697a656421a265627a7a723158201d1fea08aebcaf079840ad8b0c6f2fa379c285a8284b38f8b95f32fe006f687664736f6c63430005110032",
    "sourcePath": "/Users/pete/Documents/Fintech-Workspace/M20/01_Sending_Remittances_Using_Smart_Contracts/Unsolved/customer_account.sol",
    "compiler": {
        "name": "solc",
        "version": "0.5.17+commit.d19bba13"
    },
    "functionHashes": {
        "accountBalance()": "b0a1c1c4",
        "deposit()": "d0e30db0",
        "getInfo()": "5a9b0b89",
        "sendRemittance(uint256,address)": "a6aeaeb5",
        "setInfo(address,address,bool,uint256,string,string)": "f15a363f"
    },
    "gasEstimates": {
        "creation": {
            "codeDepositCost": "348000",
            "executionCost": "386",
            "totalCost": "348386"
        },
        "external": {
            "": "162",
            "accountBalance()": "1020",
            "deposit()": "20172",
            "getInfo()": "infinite",
            "sendRemittance(uint256,address)": "infinite",
            "setInfo(address,address,bool,uint256,string,string)": "infinite"
        }
    }
}