{
    "contractName": "CustomerAccount",
    "abi": [
        {
            "payable": true,
            "stateMutability": "payable",
            "type": "fallback"
        },
        {
            "constant": true,
            "inputs": [],
            "name": "accountBalance",
            "outputs": [
                {
                    "internalType": "uint256",
                    "name": "",
                    "type": "uint256"
                }
            ],
            "payable": false,
            "stateMutability": "view",
            "type": "function"
        },
        {
            "constant": false,
            "inputs": [],
            "name": "deposit",
            "outputs": [],
            "payable": true,
            "stateMutability": "payable",
            "type": "function"
        },
        {
            "constant": true,
            "inputs": [],
            "name": "getInfo",
            "outputs": [
                {
                    "internalType": "address",
                    "name": "",
                    "type": "address"
                },
                {
                    "internalType": "bool",
                    "name": "",
                    "type": "bool"
                },
                {
                    "internalType": "uint256",
                    "name": "",
                    "type": "uint256"
                },
                {
                    "internalType": "string",
                    "name": "",
                    "type": "string"
                },
                {
                    "internalType": "string",
                    "name": "",
                    "type": "string"
                }
            ],
            "payable": false,
            "stateMutability": "view",
            "type": "function"
        },
        {
            "constant": false,
            "inputs": [
                {
                    "internalType": "uint256",
                    "name": "amount",
                    "type": "uint256"
                },
                {
                    "internalType": "address payable",
                    "name": "recipient",
                    "type": "address"
                }
            ],
            "name": "sendRemittance",
            "outputs": [],
            "payable": false,
            "stateMutability": "nonpayable",
            "type": "function"
        },
        {
            "constant": false,
            "inputs": [
                {
                    "internalType": "address payable",
                    "name": "newOwner",
                    "type": "address"
                },
                {
                    "internalType": "bool",
                    "name": "newAccountStatus",
                    "type": "bool"
                },
                {
                    "internalType": "uint256",
                    "name": "newAccountBalance",
                    "type": "uint256"
                },
                {
                    "internalType": "string",
                    "name": "newCustomerName",
                    "type": "string"
                },
                {
                    "internalType": "string",
                    "name": "newCustomerLastName",
                    "type": "string"
                }
            ],
            "name": "setInfo",
            "outputs": [],
            "payable": false,
            "stateMutability": "nonpayable",
            "type": "function"
        }
    ],
    "bytecode": "608060405234801561001057600080fd5b5061069b806100206000396000f3fe60806040526004361061004a5760003560e01c80635a9b0b891461004c578063a6aeaeb51461016a578063b0a1c1c4146101a3578063d0e30db0146101ca578063de1f950b146101d2575b005b34801561005857600080fd5b5061006161032a565b60405180866001600160a01b03166001600160a01b03168152602001851515151581526020018481526020018060200180602001838103835285818151815260200191508051906020019080838360005b838110156100ca5781810151838201526020016100b2565b50505050905090810190601f1680156100f75780820380516001836020036101000a031916815260200191505b50838103825284518152845160209182019186019080838360005b8381101561012a578181015183820152602001610112565b50505050905090810190601f1680156101575780820380516001836020036101000a031916815260200191505b5097505050505050505060405180910390f35b34801561017657600080fd5b5061004a6004803603604081101561018d57600080fd5b50803590602001356001600160a01b0316610484565b3480156101af57600080fd5b506101b8610523565b60408051918252519081900360200190f35b61004a610529565b3480156101de57600080fd5b5061004a600480360360a08110156101f557600080fd5b6001600160a01b038235169160208101351515916040820135919081019060808101606082013564010000000081111561022e57600080fd5b82018360208201111561024057600080fd5b8035906020019184600183028401116401000000008311171561026257600080fd5b91908080601f01602080910402602001604051908101604052809392919081815260200183838082843760009201919091525092959493602081019350359150506401000000008111156102b557600080fd5b8201836020820111156102c757600080fd5b803590602001918460018302840111640100000000831117156102e957600080fd5b91908080601f01602080910402602001604051908101604052809392919081815260200183838082843760009201919091525092955061052f945050505050565b600080546001805460028054604080516020610100968416159690960260001901909216839004601f81018690048602830186019091528082528695869560609586956001600160a01b03841695600160a01b90940460ff16949193909260039284918301828280156103de5780601f106103b3576101008083540402835291602001916103de565b820191906000526020600020905b8154815290600101906020018083116103c157829003601f168201915b5050845460408051602060026001851615610100026000190190941693909304601f81018490048402820184019092528181529597508694509250840190508282801561046c5780601f106104415761010080835404028352916020019161046c565b820191906000526020600020905b81548152906001019060200180831161044f57829003601f168201915b50505050509050945094509450945094509091929394565b6000546001600160a01b03828116911614806104ad57506004546001600160a01b038281169116145b6104e85760405162461bcd60e51b815260040180806020018281038252603c81526020018061062b603c913960400191505060405180910390fd5b6040516001600160a01b0382169083156108fc029084906000818181858888f1935050505015801561051e573d6000803e3d6000fd5b505050565b60015481565b47600155565b600080546001600160a01b0319166001600160a01b0387161760ff60a01b1916600160a01b861515021790556001839055815161057390600290602085019061058f565b50805161058790600390602084019061058f565b505050505050565b828054600181600116156101000203166002900490600052602060002090601f016020900481019282601f106105d057805160ff19168380011785556105fd565b828001600101855582156105fd579182015b828111156105fd5782518255916020019190600101906105e2565b5061060992915061060d565b5090565b61062791905b808211156106095760008155600101610613565b9056fe4f6e6c7920746865206f776e6572206f722074686520617574686f72697a656420726563697069656e742063616e2072656365697665206574686572a265627a7a723158207cd46df54c814c62a4f2e8b1fb6c41c915797e0c21a5ea25201d163ea2a82cb164736f6c63430005110032",
    "sourcePath": "/Users/pete/Documents/Fintech-Workspace/M20/02_Enforcing_Contract_Terms/Unsolved/customer_account.sol",
    "compiler": {
        "name": "solc",
        "version": "0.5.17+commit.d19bba13"
    },
    "functionHashes": {
        "accountBalance()": "b0a1c1c4",
        "deposit()": "d0e30db0",
        "getInfo()": "5a9b0b89",
        "sendRemittance(uint256,address)": "a6aeaeb5",
        "setInfo(address,bool,uint256,string,string)": "de1f950b"
    },
    "gasEstimates": {
        "creation": {
            "codeDepositCost": "338200",
            "executionCost": "374",
            "totalCost": "338574"
        },
        "external": {
            "": "162",
            "accountBalance()": "1020",
            "deposit()": "20172",
            "getInfo()": "infinite",
            "sendRemittance(uint256,address)": "infinite",
            "setInfo(address,bool,uint256,string,string)": "infinite"
        }
    }
}