{
    "contractName": "BankAccount",
    "abi": [
        {
            "payable": true,
            "stateMutability": "payable",
            "type": "fallback"
        },
        {
            "constant": false,
            "inputs": [],
            "name": "deposit",
            "outputs": [],
            "payable": true,
            "stateMutability": "payable",
            "type": "function"
        },
        {
            "constant": false,
            "inputs": [
                {
                    "internalType": "uint256",
                    "name": "amount",
                    "type": "uint256"
                },
                {
                    "internalType": "address payable",
                    "name": "recipient",
                    "type": "address"
                }
            ],
            "name": "withdraw",
            "outputs": [],
            "payable": false,
            "stateMutability": "nonpayable",
            "type": "function"
        }
    ],
    "bytecode": "6080604052600080546001600160a01b03191673c3879b456daa348a16b6524cbc558d2cc984722c17905534801561003657600080fd5b5061013f806100466000396000f3fe6080604052600436106100285760003560e01c8062f714ce1461002a578063d0e30db014610063575b005b34801561003657600080fd5b506100286004803603604081101561004d57600080fd5b50803590602001356001600160a01b031661006b565b610028610108565b6000546001600160a01b038281169116146100cd576040805162461bcd60e51b815260206004820152601b60248201527f4f6e6c7920746865206f776e65722063616e2077697468647261770000000000604482015290519081900360640190fd5b6040516001600160a01b0382169083156108fc029084906000818181858888f19350505050158015610103573d6000803e3d6000fd5b505050565b56fea265627a7a72315820497bbb06d50e76187e2c1ecb36d2676bd5c0abf6dbaac4b9af2f599bf4f0286664736f6c63430005110032",
    "sourcePath": "/Users/pete/Documents/Fintech-Workspace/M20/require.sol",
    "compiler": {
        "name": "solc",
        "version": "0.5.17+commit.d19bba13"
    },
    "functionHashes": {
        "deposit()": "d0e30db0",
        "withdraw(uint256,address)": "00f714ce"
    },
    "gasEstimates": {
        "creation": {
            "codeDepositCost": "63800",
            "executionCost": "20947",
            "totalCost": "84747"
        },
        "external": {
            "": "96",
            "deposit()": "120",
            "withdraw(uint256,address)": "infinite"
        }
    }
}