{
    "contractName": "LatestTrade",
    "abi": [
        {
            "constant": true,
            "inputs": [],
            "name": "getLatestTrade",
            "outputs": [
                {
                    "internalType": "string",
                    "name": "",
                    "type": "string"
                },
                {
                    "internalType": "uint256",
                    "name": "",
                    "type": "uint256"
                },
                {
                    "internalType": "bool",
                    "name": "",
                    "type": "bool"
                }
            ],
            "payable": false,
            "stateMutability": "view",
            "type": "function"
        },
        {
            "constant": false,
            "inputs": [
                {
                    "internalType": "string",
                    "name": "newCoin",
                    "type": "string"
                },
                {
                    "internalType": "uint256",
                    "name": "newPrice",
                    "type": "uint256"
                },
                {
                    "internalType": "bool",
                    "name": "isBuy",
                    "type": "bool"
                }
            ],
            "name": "updateTrade",
            "outputs": [],
            "payable": false,
            "stateMutability": "nonpayable",
            "type": "function"
        }
    ],
    "bytecode": "60c0604052600360808190526242544360e81b60a09081526100249160009190610037565b5034801561003157600080fd5b506100d2565b828054600181600116156101000203166002900490600052602060002090601f016020900481019282601f1061007857805160ff19168380011785556100a5565b828001600101855582156100a5579182015b828111156100a557825182559160200191906001019061008a565b506100b19291506100b5565b5090565b6100cf91905b808211156100b157600081556001016100bb565b90565b61032d806100e16000396000f3fe608060405234801561001057600080fd5b50600436106100365760003560e01c806376bc97961461003b5780638f4c4c7e146100cd575b600080fd5b61004361017c565b604051808060200184815260200183151515158152602001828103825285818151815260200191508051906020019080838360005b83811015610090578181015183820152602001610078565b50505050905090810190601f1680156100bd5780820380516001836020036101000a031916815260200191505b5094505050505060405180910390f35b61017a600480360360608110156100e357600080fd5b8101906020810181356401000000008111156100fe57600080fd5b82018360208201111561011057600080fd5b8035906020019184600183028401116401000000008311171561013257600080fd5b91908080601f0160208091040260200160405190810160405280939291908181526020018383808284376000920191909152509295505082359350505060200135151561022f565b005b600180546002805460008054604080516020601f600019998516156101000299909901909316959095049687018290048202850182019052858452606095919485948594919360ff909216929091859183018282801561021d5780601f106101f25761010080835404028352916020019161021d565b820191906000526020600020905b81548152906001019060200180831161020057829003601f168201915b50505050509250925092509250909192565b825161024290600090602086019061025d565b506001919091556002805460ff191691151591909117905550565b828054600181600116156101000203166002900490600052602060002090601f016020900481019282601f1061029e57805160ff19168380011785556102cb565b828001600101855582156102cb579182015b828111156102cb5782518255916020019190600101906102b0565b506102d79291506102db565b5090565b6102f591905b808211156102d757600081556001016102e1565b9056fea265627a7a7231582063ef0cb8d382f526022cc5361c4836b1037f57d69a469cf87e3e59255fddd00364736f6c63430005110032",
    "sourcePath": "/Users/pete/Documents/Fintech-Workspace/M20/chapter.sol",
    "compiler": {
        "name": "solc",
        "version": "0.5.17+commit.d19bba13"
    },
    "functionHashes": {
        "getLatestTrade()": "76bc9796",
        "updateTrade(string,uint256,bool)": "8f4c4c7e"
    },
    "gasEstimates": {
        "creation": {
            "codeDepositCost": "162600",
            "executionCost": "infinite",
            "totalCost": "infinite"
        },
        "external": {
            "getLatestTrade()": "infinite",
            "updateTrade(string,uint256,bool)": "infinite"
        }
    }
}